:020000040000fa
:080000000002040000000000f2
:020000040000fa
:10000800e21a0000e21a0000e21a0000e21a0000f8
:10001800e21a0000e21a0000e21a0000e21a0000e8
:10002800e21a0000e21a0000e21a0000e21a0000d8
:10003800e21a0000e21a0000e21a0000e21a0000c8
:020000040000fa
:020000040000fa
:100400002f9620000e7f22000e01880000000000c1
:10041000000020000000e000020032000001200087
:10042000200288000c000700006f2200010020005d
:1004300011000700000020000000e0000200320070
:100440000000020000000000062902000000000079
:100450000040da000000fe004440a900208e200089
:100460000000e0000300320000002000a00188002e
:100470004440a80000000600910188008000780038
:100480000000eb0015003700e280400032a0b4000d
:100490009101ba00e280400032a0b4009102ba009b
:1004a000e280400032a0b4000002eb00472bde00e7
:1004b000f507b200602ce10004003a000059eb009f
:1004c0008301e900fdff3e00040037006128e100e0
:1004d000010032000082eb00040007001101ba00a5
:1004e0000200e000e8ff3a00000006003159ba00bf
:1004f0008301e9000c0032002159ba008301e900b0
:10050000080032000400e00003003a00e2804000ee
:1005100032a0b400f5ff370011d9ba008301e90019
:10052000faff3a008100e800e180400032a0b40008
:10053000000006000825040000000000d028040088
:10054000000000006c2504000000000030260400bc
:100550000000000046260400000000005c260400a5
:10056000000000007226040000000000a403040044
:1005700000000000340d0400000000000000040032
:10058000000000000a00fa0011002000b1bf9f0027
:10059000c0bf9f006a805700220607004fb897002f
:1005a0000080fa00000006000a00fa00e20f500086
:1005b00020003e00d04a8000e10f500006003200cb
:1005c0008023200045232000232320000423200033
:1005d0000000e00004003a008022200045222000b4
:1005e00023222000042220000600280014036300b8
:1005f00003003a000608780000002800140a700082
:1006000013a8a30001003a0013a0a0000200780084
:10061000050037001388a300feff32003102fb0003
:10062000840a78000000e9000000e000f9ff3a00c9
:100630000800370033002000b3bf9f00c0bf9f00f9
:10064000d1bf9f00e2bf9f006a805700f7050700f7
:100650006fb99700020078000080fa0000000600e1
:100660000a00fa0051002000b1bf9f00c0bf9f00e8
:100670006a805700ef0507005fb897000080fa0016
:1006800000000600889fbe0080047800004b8000b8
:100690000000e00004003a000e0007000084eb00b8
:1006a0000000e00008003500084b80000900e00071
:1006b0000500320009004400060007000000e000c9
:1006c00001003d000084eb00080078004f04be00ec
:1006d00000000600800078000100e00003003a00fe
:1006e00000002000004b8800000005000080eb00a7
:1006f00002002000828f500002003e00014b880063
:100700000000eb00000006006022b8000602200096
:100710000000d0008180d2000482d2008582d20005
:100720000000a0000202520083825a000300310040
:100730000202420083824a000000a1000603e90091
:10074000f3ff3a0000000600889fbe000004780016
:10075000010078008204780088017800090178009f
:1007600011002000c8010700890f5000010032006d
:100770000004eb00080078004f04be0000000600f3
:100780000000fa00e88157004fb99700618320000c
:10079000403a2000020007000080fa000000060036
:1007a0006200fa00889fbe008a1f7800000578006a
:1007b00081047800020478008300780080f92f001b
:1007c0000f004000530407009a979f00a9979f00cd
:1007d0000000eb00b09f9f001885fb008a04fb001f
:1007e0000a05ea004f55de0050022000808f5400b9
:1007f0000d003200e10f55000b003a000a017800ad
:10080000880078002f9097009f91970003000100c7
:10081000a0979f000000e0008e0032003f989700f4
:100820000000e800b09f9f000a044400500220002e
:10083000808f5400040032000900e000e6ff3a0017
:100840003f989700840037000000eb00909f9f00c6
:10085000809f9f00f0979f00e0979f00d0979f0098
:10086000c0979f000700370001952000010050004d
:10087000000040004194200061007800df9897005c
:1008800001007000d09f9f00880478000904780060
:10089000384578008a00fb0000952000df01070042
:1008a0000000e000f0ff3a00a1c2b300814f550004
:1008b0000e003a00cf8897000180e900c08f9f00aa
:1008c00010007800c09f9f000000e00005003d0080
:1008d0000000ea00c09f9f005f9897000020a000e2
:1008e000d09f9f000904e8000f003700c09f9f00c1
:1008f0000000eb0005003700f2ff2700820f5000d8
:10090000020032006a01b900028040000904780048
:1009100088047800b900fb000103b100e98f5000a2
:10092000f5ff3600c09f9f00e0c2b300984f100053
:10093000020032000080eb0019003700a0c2b300b3
:10094000d84f100007003a00cf8897000180e900d7
:10095000c08f9f0010007800a09f9f000804e8004f
:10096000100037000000eb00a09f9f008800780077
:1009700005003700f3ff2700830f5000020032000c
:100980006a02b90004004100010478008800780080
:100990003101fb000203b100e90f5100f5ff360001
:1009a000a09f9f00984478008900fb00c09320001e
:1009b0009a0107000000e000020032000804e8008d
:1009c000010037008044eb00c97f9f0080c6b30060
:1009d00080cf540004003a0098cf14000a003a0077
:1009e0006640500006003700c0c6b30080cf5400f8
:1009f00005003a0098cf140003003a00654040001b
:100a0000c07f9f000804e8001801fb00e3fb2f00f3
:100a10008f81410081f92f008f804000a0f92f00c5
:100a20000f004000100007000000e00009003a003d
:100a3000e1fb2f008f804000a0f92f000f00400045
:100a4000f80207000000e000020035000804e8009a
:100a500061ff37000080eb004f0578004f04be00b7
:100a60000080fa0000000600881f7800e4c6b3008a
:100a7000844f5100b600320010003c006b4252001f
:100a8000844f51001800320005003c0054c2b300ee
:100a9000844f5100ee00320084c5b3000f003700d0
:100aa00044c6b300844f5100140032006542420036
:100ab000844f5100e9003a001000370004c7b3002a
:100ac000844f5100d500320053003500654242008a
:100ad000844f51005000320063424200844f510065
:100ae000de003a004c0037001181e90082087800ee
:100af000f000900012417800d6003700206290008c
:100b0000c5c6b300854f520007003a009102780035
:100b100064825200840878001402be004fabde00ed
:100b2000860378001100370015c7b300854f5200c7
:100b300003003200a5c6b300854f520006003a00fc
:100b40009102780068825200840878005403be0045
:100b50004402be00050037001182e90084087800d5
:100b600014027800cfa2de00612bb9000498be0009
:100b70000690be00a060900088c6b30088cf5000e9
:100b80000d00320028c6b30088cf500004003a00a0
:100b90000402fb00cfa2de00612bb9000800370081
:100ba00048c7b30088cf50000300320066444400b9
:100bb00088cf500004003a00cfa2de00612bb900bc
:100bc0000498be000690be003002be002003be00a6
:100bd000f0009000e00f5200e08f5a00e00f5b0041
:100be000e08f5b0002003d00d4c2b3000800370074
:100bf000001290000418a30002003200b4c2b30037
:100c0000030037000408a3004c00320004c2b30004
:100c100084f178004700370020629000c5c6b30019
:100c2000854f520006003a0091027800648252001b
:100c3000840878001402be006033b8001100370049
:100c400015c7b300854f520003003200a5c6b3009c
:100c5000854f520006003a009102780068825200e7
:100c6000840878005403be004402be00050037002b
:100c70001182e90084087800140278008002eb00f9
:100c80006033b8000498be000690be00a0609000db
:100c900088c6b30088cf50000d00320028c6b300cc
:100ca00088cf500004003a000482fb008002eb0071
:100cb0006033b8000800370048c7b30088cf500041
:100cc000030032006644440088cf500004003a001c
:100cd0008002eb006033b8000498be000690be00ae
:100ce000801090000138a300140032003002be00d2
:100cf0002003be00e00f5200e08f5a00e00f5b00bf
:100d0000e08f5b000d00320081c7b300814f5100be
:100d10000300320081c5b300814f510007003a0043
:100d2000f000900004c3b30084f178008100e80073
:100d300082f178008100e80071009800f0009000d6
:100d40008181410063009800824078003e003700b6
:100d5000a0619000c4c6b3001181e90084cf5100a6
:100d6000220032000a003c006442520084cf51004d
:100d70002500320004c2e80084cf51001300320085
:100d80006842520084cf51001e003a000a0037002a
:100d900044c7b30084cf51001b00320066424200ba
:100da00084cf5100180032006942520084cf5100b4
:100db00014003a000500370082087800920078009d
:100dc00040589000804878002c0037008208780056
:100dd00092007800600a9000cfa2de00612bb9007b
:100de0008498be008690be002400370082087800f8
:100df0009200780060099000cf91de008288be00ea
:100e00001e0037001181e900820878009200780006
:100e10006008900080087800180037001181e90010
:100e20008208780012027800cfa2de00612bb900a0
:100e30000498be000690be00f00090008181410041
:100e40006300980081c7b300c70007000b0037009c
:100e5000f000900082f1780006003700f00090006a
:100e6000818141000204e00001003a0052c2b30057
:100e7000824978008100e800710098000000eb00d2
:100e80004f04780000000600889fbe008a9fbe00c5
:100e90008c9fbe008e1f7800000678000104780049
:100ea00002007800830478000881b9000207780006
:100eb0000200e000420032000800e0004100320081
:100ec00082057800c900900069009000808f500072
:100ed00004003900090078005c0007000000e00011
:100ee0002900350000402000190060000a0032008f
:100ef0000b017800a10020000c00780036000700ec
:100f0000800678000d00e000060032006105160042
:100f10000a854600040037000b0578008006eb00c8
:100f2000010037000b05780049009000e9009000af
:100f3000808050008a8f5000020031000105780047
:100f40008006eb000a0178008c0078002c00070076
:100f50008a855500490090000a004000c0049800ae
:100f60000d00e0000400320009007800ce02070006
:100f70000000e00004003a000b00e0000200320034
:100f80000a064600cfff37000080200019006000ed
:100f90000200320009007800c302070000c02000f0
:100fa000190060000200320049009000e00498003f
:100fb0008b055700110009008885d8000100370013
:100fc0000000eb004f0778004f06be004f05be0043
:100fd0004f04be000000060003003700b0cf100031
:100fe000050032000201e900800178000200e00003
:100ff000faff3a0000000500030078000000060038
:101000008001780002003700b15978000201e90040
:101010000200e000fcff3a0000000600020037007a
:101020000304e000060032000001780002007800ae
:10103000b041780081cf5100f9ff3a00010037003c
:101040000001eb000200780000000600889fbe004f
:101050008a1f780000047800c800900068019000a2
:101060000000eb00828f50003c003900180078002f
:101070002200290002016000e20f51000700320047
:10108000012024000000e00001003d0001202000bc
:10109000008c70000080eb0030003700020026005a
:1010a00002006000820f500009003a0038009000f2
:1010b000808f500006003900080078007a0207008f
:1010c000800078000080eb000100e00023003a007f
:1010d0001805780000c020000000650018003a00e4
:1010e000a80490006002200008004000808f540097
:1010f00013003a0000202000160307002004980087
:101100000000e00005003a00290498004904980016
:101110008904e80039049800080037000a60a0003c
:101120000a0c7800400498000120200080804000d4
:1011300031049800400c9800500c9800f901070009
:101140002800900050049800380090006004980037
:1011500000002600180c70000000eb004f0578001e
:101160004f04be0000000600fc874700889fbe00b9
:101170008a9fbe008c9fbe008e1f780000067800fc
:1011800080c5b30080cf50000a0032007740400095
:1011900080cf50000a0032006940400080cf5000ec
:1011a0000b003200b092200080bf9f00ae002000f4
:1011b0000a003700a291200082bf9f00060037007e
:1011c000b392200083bf9f008e00200003003700f1
:1011d000b492200084bf9f000e0120003c02be009c
:1011e0002c03be000605be000404be0040c6b300ca
:1011f00080cf5000030032006540400080cf500097
:101200000b003a00e00f5200e08f5a00e00f5b0045
:10121000e08f5b0006003d006000b8006011b80080
:10122000040450008584580006055900878559003c
:10123000e80f57000400320040002000f00f570074
:1012400038003a000100370030002000e00f540061
:10125000e08f5c00e00f5d00e08f5d0004003a006d
:10126000dc0890008d0120000100e0000600320043
:101270008e00e900888060008fba9700e5c0780092
:10128000f1ef9f007d012000800078008100e900df
:10129000050033008b05d1000a85d3008984d30073
:1012a0000884d300f9ff3700089ebe000a96be00ee
:1012b000120037008d06e9008e00e900848060008e
:1012c0000fb99700e2c1780082fd2f000f014100a5
:1012d00003f17e00800078008100e9000500330002
:1012e0008783d1000683d3008582d3000482d30094
:1012f000f9ff3700049ebe000696be003c02be0009
:101300002c03be00e00f5200e08f5a00e00f5b009c
:10131000e08f5b008b0034000d00e000e5ff3c0037
:10132000880037002c60900081c6b300814f5000c8
:101330000b00320006003c000004e0000800320010
:10134000e6c05000814f50004e003a0004003700c4
:10135000c1c6b300814f50004a003a002100370057
:101360000800e00004003a005c0890008d012000b5
:101370000000e00006003200110009000e84d800d1
:101380000fb99700e2c07800f1ef9f007d012000c7
:10139000110009000e84d8000a003700110009006e
:1013a0000e04d8008d06e9000e81b9000204540035
:1013b0008fb8970061417c0081fd2f008f80400035
:1013c00082f07e00000478000800e0000200320095
:1013d0000d00e000f1ff3c00cfc4de00614db9001c
:1013e00025003700e00f5400e08f5c0004003a0055
:1013f0005c0890008d0120000000e0000700320032
:101400006171b9000800be009b0207008fb9970008
:10141000e3417800f3ef9f007d0120006171b90086
:101420000800be00b8fc07000b0037006171b9006e
:101430000800be00810207008d06e90000f1b90036
:10144000020454000fba9700e4427c0084fd2f0090
:101450000f02420005f27e000004be00e00f5000c3
:10146000e08f5800020032000d00e000efff3c006a
:101470004fcdde008a057800089ebe000a96be00a9
:1014800030003700e00f5400e08f5c00e00f5d009b
:10149000e08f5d0004003a005c0890008d012000a0
:1014a0000000e000090032006172b900612bb90050
:1014b0000800be000a01be00180307000fba97001b
:1014c00064427800f4ef9f007d0120006172b90052
:1014d000612bb9000800be000a01be000803070026
:1014e0000d0037006172b900612bb9000800be0021
:1014f0000a01be000d0307008d06e90000f2b900e5
:10150000040454008fba970065427c0085fd2f00cb
:101510008f82420084f27e00009ebe000296be00d2
:101520003c04be002c05be00e00f5400e08f5c00c0
:10153000e00f5d00e08f5d00020034000d00e00070
:10154000e8ff3c00e80f570010003a000c10900034
:101550000038a3000d003200f78f560006003e0051
:1015600085fd2f008f824200e5c07e0000c3b300de
:1015700080cf5000050032008d06e90002c3b300a1
:1015800081fd2f008f80400082f07e007881160060
:10159000120e98006c00900083fd2f008f81410097
:1015a0008d80410096fe07001c089000dc0890002a
:1015b000810f500006003d0000805000000e980092
:1015c0000c1090000040a100001698000f0037009a
:1015d0000100e0000d003d008c109000f4806000e0
:1015e000f08f500009003a007c099000fc00900048
:1015f000810051000c099000828050000080500052
:101600004240a90001003400000e98004f07780006
:101610004f06be004f05be004f04be00cf01b10013
:10162000000006000400fa00889fbe008a9fbe00ea
:101630008c1f78000004780001067800f80d9000f7
:10164000780090008085550008089000808555003e
:101650001808900080855500280890008085550066
:101660003808900080855500480890008085550016
:101670000002220090bf9f0000032300a0bf9f0034
:10168000081090000028a30015003a000b00e000ad
:10169000130034000b0578008a047800e20f55002f
:1016a0000100360029002000c801900009017800df
:1016b000ee8057005800900003000100500498008d
:1016c0000000e0008c003200680890000900400033
:1016d000600c9800090555004240a900eeff3c004f
:1016e000780190000200e0000c003400c801900076
:1016f0008c0078005800900003000100500498000e
:101700008080eb000000e0007c003200e8089000e0
:101710007800900000804000600c9800880c9000d9
:101720000900e0001100340009057800e28f540040
:10173000010036002a002000c80190000a0178004c
:10174000ec805700580090000300010050049800fe
:101750000000e00068003200680890000a004000c5
:10176000600c98008a845400edff3700180990003f
:101770000200e0000c003400c8019000e800900076
:101780005800900003000100500498008080eb0096
:101790000000e00059003200e808900018089000ae
:1017a00000804000600c9800a80c90000900e00048
:1017b0001100340009057800e28f54000100360062
:1017c0002a002000c80190000a017800ec80570030
:1017d0005800900003000100500498000000e00051
:1017e00045003200680890000a004000600c980034
:1017f0008a845400edff3700380990000200e000b1
:101800000e003400e800900018089000808040002e
:10181000c801900058009000030001005004980097
:101820008080eb000000e00034003200e808900007
:101830003808900000804000600c9800c80c9000b0
:101840000900e0001100340009057800e28f54001f
:10185000010036002a002000c80190000a0178002b
:10186000ec805700580090000300010050049800dd
:101870000000e00020003200680890000a004000ec
:10188000600c98008a845400edff37000810900027
:101890008000eb000028a300180032000b00e000dd
:1018a000160034008b04780009057800e28f54009c
:1018b000010036002a002000c80190000a017800cb
:1018c000ee8057005800900003000100500498007b
:1018d0000000e00008003200680890000a004000a4
:1018e000600c98008a8454004240a900eeff3c003e
:1018f0008000eb00010037008080eb0001007800e1
:101900004f0678004f05be004f04be000080fa006d
:1019100000000600010878000000060040d3200007
:101920009b003700881f7800c89520001804e0004d
:1019300003003a00f9ff070020c0b300004c780014
:101940004f04780000000600889fbe000004780065
:10195000080078005400070080047800000420008c
:101960001800600002003200280090009400070078
:101970000000eb0020049800384090000004e000d4
:10198000050035000000fb00fefa07000000e00043
:10199000010032008084eb00181090000000e0008d
:1019a000080032002efb07000000e00001003200ba
:1019b0008084eb0018109000810007000000eb000d
:1019c0001014980000082000180060001500320074
:1019d0000001eb006000b800638820000202d00024
:1019e00063027a00880f520005003a0000004000b0
:1019f00081804800008041000008eb0006003700ad
:101a000061004000e08048000201e800e80f50005b
:101a1000e08f5800f0ff3a000800780068000700e7
:101a20000e003700000c780000c0eb003044980036
:101a30006002200008004000200498004004980044
:101a400050049800400c980060049800500c9800d6
:101a50007004980076004400000c9800090078009b
:101a60004f04be0000000600881f78000004eb0051
:101a70006140b800e2ff2f00f3ff2f0001010700d3
:101a800042892000620078000000e000010032007e
:101a9000adff07000804e800e80f5400f4ff3a0027
:101aa0004f04780000000600889fbe000004780004
:101ab0000800e0000e003a008004eb008800d0002f
:101ac00060882000610078000000e000040032001f
:101ad000f5ff07000000e00001003d008084eb00fe
:101ae0000804e800e80f5400f4ff3a00250037002e
:101af00000002200180060008004eb00210032008a
:101b0000a80490000f0037000901510038409000f0
:101b10000000fb0089007800a3fa07000000e00045
:101b200007003c00280090004004980060049800e2
:101b3000500c98001890a0008084eb001100370032
:101b40008084440048019000828f5400eeff3900e9
:101b500028009000400498009800780002c02000ff
:101b60000281600001003a003800900001e8a30003
:101b7000020032006004980001003700500c980009
:101b80008004eb00090078004f04be00000006004e
:101b9000010020000100e000080032000100800088
:101ba0000100e000050032008100e900010088002a
:101bb0008100d0000200800000b178000000060023
:101bc0000000e0002f003200c0017800e38f5100d8
:101bd0002c0036000308a3002a003a00c14a800006
:101be0000100e00002003200810f500004003100cb
:101bf00011009800c04a8800160037008200780063
:101c0000110190000200e00002003200800f51003c
:101c1000faff39001102780084824000850f5000dd
:101c200018003900808f520003003a0083084200f8
:101c300001007800070037000200e00003003200d6
:101c400083014000830f51000e00390012009800fc
:101c500090009800900090000100e0000900320020
:101c600010014000828f500006003a00629520006b
:101c70000009eb001001780011084100910090006c
:101c80001100980000000600889fbe000004780044
:101c9000b14a80000100e00002003200010078003b
:101ca0000d003700c14a80008095200004003700f5
:101cb000910f5400250036000180e800910090004b
:101cc0000100e000faff3a0010003700920f5400c4
:101cd0001e0036000280e800100178000200e000db
:101ce000faff3a0011017800c14a80008095200077
:101cf00004003700910f5400140036000180e80002
:101d000091009000828f5000faff3a00f94a80005b
:101d1000888f5400010031008804780009007800a1
:101d2000360007000000e00004003a00888f5400ed
:101d3000050032008904d100f5ff3700091878004a
:101d40009fff0700d2ff37000000eb004f04be00ea
:101d500000000600881f7800630440000800a1000e
:101d60008000eb00800f540021003600e30f540088
:101d700001003e004800200008007800c2ff070074
:101d80008000eb000000e0001900320090007800b5
:101d90009101780064815100880f510003003100e7
:101da0001101900002087800070037000881400008
:101db000020878009101900013019800100178004a
:101dc0001109140088087800100178000000eb0069
:101dd0000200e00004003200920190000300e000e5
:101de000010032000280e800b04a88008180e800eb
:101df000010078004f0478000000060080007800a1
:101e00000000eb000100e000050034000100780054
:101e10001cfa0700e10f400001003a000000eb004f
:101e20000000060000c0da000000060000c0da0072
:101e30000000060000c0da0000000600839f680072
:101e40000100e00002003d0060001000e08018008a
:101e50000300e00002003d0060011100e081190074
:101e600029fa07004f00e00002003b00600010006c
:101e7000e08018000000060023fa07000400be00fe
:101e800000000600020ab900001bb9000200b800f9
:101e9000810042008100430000000600889fbe00d0
:101ea0008a9fbe0030044200b0844a0030054b00d7
:101eb00090854b006000b1000898be000a90be00fb
:101ec0000440e10005c8e10006d0e10007d8e100c8
:101ed00002003100680040001008e8004f05be0015
:101ee0004f04be0000000600889fbe008a9fbe000f
:101ef0003004be002005be000418540005985c00a4
:101f000006185d0007985d00110020000440e10004
:101f100005c8e10006d0e10007d8e1000100390062
:101f20008000eb00108810004f05be004f04be007b
:101f3000000006001200fa00889fbe008a9fbe00c3
:101f40008c9fbe00e0b79f00f1b79f0082bf9f004b
:101f500093bf9f000605be000404be000000eb0016
:101f6000d0b79f00c0b79f00b0b79f00a0b79f0039
:101f700090b79f000006eb005fb19700cfb09700cd
:101f8000820141003fb097000200e00004003d00e4
:101f9000370007007e805700c0ff070003003700ae
:101fa000330007007e805700cfff0700dfb69700a1
:101fb0000d00e0000c0035006fb29700ffb29700f3
:101fc0000fbb97009fbb970010002000010020006e
:101fd0006011b80000027200818272000203730077
:101fe000838373001b0007000c06e8000104200037
:101ff000810f5600e0ff3a000d00e00004003d00b4
:102000000802be000a03be007e805700a3ff07003f
:102010005fa897000000e00005003a001fb297009b
:10202000afb297003fb39700cfb397000900070006
:102030006fb09700ffb097000fb997009fb9970056
:102040004f06be004f05be004f04be000080fa00e0
:10205000000006000100070000000600a4b79f0072
:10206000b5b79f00c6b79f00d7b79f000000060016
:102070004f09de0082817100b3b79f004f01de007f
:102080008180400082807000a1b79f008fb09700d0
:102090004f09de00000040000200700090b79f0072
:1020a0007fa897004f01de00818040008280700091
:1020b00081b79f000d0007004f3ade00000040008e
:1020c00004007000f0af9f00080007000402420007
:1020d00085824a0006034b0087834b00dfff070021
:1020e0000802be000a03be00000006002fb29700df
:1020f000bfb297004fb39700dfb397000000060010
:10210000881f780018002000881f780089ff0700ca
:102110008f87e9004f04780000000600801feb0065
:1021200084ff07008f87e90000000600889fbe003b
:102130008a9fbe00e00f5000e08f5800e00f59006a
:10214000e08f59000c003d006044b8006055b800b5
:102150000000540081805c0002015d0083815d000d
:10216000180020001500070008003d0018000700b7
:102170000004eb00050037000004eb000f0007002f
:1021800002003d001200070018002000dcff0700dd
:102190000800e000060032006022b8006033b8009a
:1021a0000000520081805a0002015b0083815b00c5
:1021b0004f05be004f04be0000000600e00f5200b5
:1021c000e08f5a00e00f5b00e08f5b00000006002c
:1021d0006044b8006055b8000402540085825c0079
:1021e00006035d0087835d0000000600889fbe0037
:1021f0008a9fbe008c1f7800e00f5000e08f5800cf
:10220000e00f5900e08f59000d003d006044b80018
:102210006055b8000000540081805c0002015d0040
:1022200083815d001c0020000820e10009a8e10076
:102230000ab0e1000bb8e1000d003d0008003700d6
:102240000006eb00e00f5200e08f5a00e00f5b0049
:10225000e08f5b0006003d006044b8006055b800a8
:102260000402540085825c0006035d0087835d00e4
:10227000aaff07000c00e000060032006022b80050
:102280006033b8000000520081805a0002015b00f8
:1022900083815b004f0678004f05be004f04be00ef
:0422a0000000060034
:020000040000fa
:1022a400556e0000686100006e6400006c650000fb
:1022b40064200000696e0000746500007272000002
:1022c40075700000742c000020000000756e000082
:1022d4006b6e00006f7700006e0000005049000034
:1022e40043320000344600004a3100003238000016
:1022f400474100003031000030000000413300004d
:102304000041000034000000413f00000044000090
:102314006576000069630000652000004944000000
:10232400203d0000200000002028000000290000bb
:102334002c200000726500007669000073690000bb
:102344006f6e000020000000290a0000000a00004f
:102354000a2a00002a2a00002a2a00002a2a000049
:102364002a2a00002a2a00002a2a00002a2a000019
:102374002a2a00002a2a00002a2a00002a2a000009
:102384002a2a00002a2a00002a2a00002a2a0000f9
:102394002a2a00002a2a00002a2a00002a2a0000e9
:1023a4002a2a00002a2a00002a2a00002a2a0000d9
:1023b4002a2a00002a2a00002a2a00000a2a0000e9
:1023c40020570000415200004e4900004e470000d3
:1023d400202d0000207400006869000073200000b4
:1023e400707200006f670000726100006d200000d1
:1023f4007761000073200000636f00006d700000bf
:10240400696c000065640000206600006f720000c3
:10241400207400006865000020770000726f0000df
:102424006e670000202a00000a2a000020630000d2
:1024340068690000702000006f72000020660000d0
:102444006f720000206100006e200000756e0000b5
:102454006b6e00006f7700006e2000007265000054
:1024640076690000736900006f6e0000206f000041
:102474006620000074680000697300002063000097
:102484006869000070210000202000002020000066
:10249400202a00000a2a0000205400006869000075
:1024a40073200000707200006f670000726100000a
:1024b4006d2000006d610000792000007072000042
:1024c4006f6400007563000065200000756e0000f5
:1024d40065780000706500006374000065640000a6
:1024e4002062000065680000766900006f720000d9
:1024f400212000004564000069740000202a0000c7
:102504000a2a0000207400006865000020680000aa
:1025140065610000646500007220000066690000c7
:102524006c65000073200000746f000020700000d0
:10253400726f000070650000726c0000792000006a
:1025440064650000666900006e6500002074000088
:10255400686900007320000063680000697000006f
:10256400206f000072200000202a00000a2a0000c8
:10257400207200006576000069730000696f000036
:102584006e200000616e000064200000746f000083
:10259400206900006e730000757200006520000061
:1025a400636f000072720000656300007420000015
:1025b4006f7000006572000061740000696f0000b4
:1025c4006e2e0000202000002020000020200000ab
:1025d40020200000202a00000a2a000020200000f9
:1025e40020200000202000002020000020200000e7
:1025f40020200000202000002020000020200000d7
:1026040020200000202000002020000020200000c6
:1026140020200000202000002020000020200000b6
:1026240020200000202000002020000020200000a6
:102634002020000020200000202000002020000096
:10264400202a00000a2a0000204e00004f540000f7
:10265400453a00002049000066200000746800002c
:10266400697300002077000061730000206300009c
:102674006f6d0000706900006c650000642000004c
:10268400666f00007220000074680000652000007e
:10269400636f000072720000656300007420000024
:1026a40063680000697000002c200000202a0000ec
:1026b4000a2a0000206100006e640000206f000000
:1026c4006e6c0000792000006f63000063750000e9
:1026d400727300002061000074200000706f00001d
:1026e40077650000722d00006f6e00002028000046
:1026f4006e6f0000742000006475000072690000b1
:102704006e67000020610000204d0000434c000073
:102714005220000020200000202a00000a2a000085
:102724002072000065730000657400002c20000016
:10273400766500007269000066790000207400006c
:102744006861000074200000415600004444000009
:10275400206100006e640000204100005653000018
:10276400532000006172000065200000636f0000c8
:102774006e6e00006563000074650000642e000046
:1027840020200000202a00000a2a0000204f000018
:102794006e200000746800006520000050490000ad
:1027a4004332000034480000333200004750000038
:1027b40032300000322c0000206e00006f740000e4
:1027c400206300006f6e00006e65000063740000fb
:1027d400696e000067200000415600004444000078
:1027e40020200000202000002020000020200000e5
:1027f400202a00000a2a000020700000726f0000e6
:1028040064750000636500007320000074680000b4
:1028140069730000206d000065730000736100009f
:1028240067650000206f00006e6c000079200000d6
:1028340061740000207000006f7700006572000072
:102844002d750000702e00002020000020200000c4
:10285400202000002020000020200000202a00006a
:102864000a2a00002a2a00002a2a00002a2a000034
:102874002a2a00002a2a00002a2a00002a2a000004
:102884002a2a00002a2a00002a2a00002a2a0000f4
:102894002a2a00002a2a00002a2a00002a2a0000e4
:1028a4002a2a00002a2a00002a2a00002a2a0000d4
:1028b4002a2a00002a2a00002a2a00002a2a0000c4
:1028c4002a2a00002a2a00002a2a00000a000000fe
:1028d4004661000073740000205200004320000091
:1028e4004f730000630a000000460000617300009b
:1028f4007420000052430000204f00007363000066
:10290400207700006974000068200000504c00002b
:102914004c0a000000500000726900006d61000064
:1029240072790000204f000073630000202800002b
:10293400585400002c200000485300002c200000b4
:1029440045430000290a000000500000726900009d
:102954006d61000072790000204f00007363000075
:1029640020280000585400002c2000004853000088
:102974002c20000045430000292000007769000056
:1029840074680000205000004c4c00000a00000055
:1029940053650000636f00006e6400006172000004
:1029a400792000004f730000630a0000004c00000f
:1029b4006f770000205000006f7700006572000000
:1029c40020520000432000004f730000630a0000ff
:1029d40000460000617300007420000052430000b0
:1029e400204f00007363000020770000697400002a
:1029f40068200000506f00007374000073630000cf
:102a0400616c000065000000556e00006b6e0000f4
:102a14006f7700006e2000006f7300006369000090
:102a24006c6c0000617400006f7200002074000080
:102a340079700000652e0000000a00004465000063
:102a4400766900006365000020680000617300007f
:102a540020620000656500006e200000696e0000c1
:102a6400207300006c65000065700000206d00009c
:102a74006f640000650a0000000a0000446500005d
:102a8400766900006365000020680000617300003f
:102a940020620000656500006e200000696e000081
:102aa40020690000646c0000652000006d6f000068
:102ab400646500000a0000000a520000657300000b
:102ac40065740000206300006175000073650000f8
:102ad4003a200000005000006f770000657200008b
:102ae4002d6f00006e2e00000a000000536f0000de
:102af40066740000776100007265000020520000d7
:102b040065730000657400002e0a00000057000081
:102b14006174000063680000646f000067200000b7
:102b2400546900006d6500006f750000743a000080
:102b3400200000000a0000004d4300004c52000039
:102b44002061000073730000657200007469000066
:102b54006f6e00002e0a000000420000726f000039
:102b6400776e00002d6f0000757400002e0a0000bf
:102b7400005400007261000070200000436f0000e8
:102b84006e6600006c690000637400002e0a000089
:102b9400004900006c6c000065670000616c000077
:102ba400204300006f6e0000646900007469000037
:102bb4006f6e00002e0a0000004300006f6e0000dc
:102bc40066690000677500007261000074690000a6
:102bd4006f6e0000204d0000697300006d610000fd
:102be40074630000682e00000a000000556e0000a7
:102bf4006b6e00006f7700006e20000072650000ad
:102c040073650000742e00000a0000004572000085
:102c1400726f000072200000747200006170000086
:102c240070650000643a000020000000556e00004a
:102c34006b6e00006f7700006e2000007072000061
:102c4400696f000072690000747900002f7600003b
:102c540065630000746f0000720000000a0a00003f
:102c64000000000045720000726f00007220000036
:102c7400696e000020720000656500007365000045
:102c84002f6900006e6300006c750000646500002d
:102c94002f70000069630000323400005f7500008b
:102ca40061720000742e0000682000006c6900004e
:102cb4006e65000020310000303400003a2000002e
:102cc40041530000534500005254000028620000a4
:102cd40072670000203c00003d20000030780000b6
:102ce40046460000464600002920000066610000b8
:102cf400696c0000656400002e0a000000450000b5
:102d0400727200006f720000206900006e200000e3
:102d14007265000065730000652f0000696e000095
:102d2400636c000075640000652f0000706900008a
:102d340063320000345f00007561000072740000ab
:102d44002e680000206c0000696e00006520000001
:102d540031320000353a0000204100005353000096
:102d64004552000054280000753800005f700000d0
:102d740064730000656c0000203c00003d200000ee
:102d8400555800004d4f0000444500005f500000be
:102d940044530000454c00005f39000044410000ea
:102da400544100005f4e00004f50000041520000ab
:102db40049540000592900002066000061690000a0
:102dc4006c650000642e00000a00000045720000db
:102dd400726f000072200000696e00002072000013
:102de40065650000736500002f6900006e630000d4
:102df4006c750000646500002f70000069630000ba
:102e0400323400005f75000061720000742e00000f
:102e1400682000006c6900006e650000203100002d
:102e2400333400003a2000004153000053450000b1
:102e34005254000028750000385f00006e750000d1
:102e44006d530000746f000070620000697400002c
:102e5400732000003c3d00002032000029200000c7
:102e640066610000696c0000656400002e0a0000c1
:102e740000450000727200006f72000020690000bb
:102e84006e2000007265000065730000652f00006d
:102e9400696e0000636c000075640000652f00001b
:102ea4007069000063320000345f00007561000047
:102eb400727400002e680000206c0000696e00002f
:102ec4006520000032380000393a0000204100003b
:102ed4005353000045520000542800006272000061
:102ee400672000003c3d00002030000078460000d0
:102ef4004646000046290000206600006169000083
:102f04006c650000642e00000a0000004572000099
:102f1400726f000072200000696e000020720000d1
:102f240065650000736500002f6900006e63000092
:102f34006c750000646500002f7000006963000078
:102f4400323400005f75000061720000742e0000ce
:102f5400682000006c6900006e65000020330000ea
:102f6400313000003a200000415300005345000076
:102f74005254000028750000385f0000706400009f
:102f8400736500006c2000003c3d000020550000eb
:102f9400584d00004f440000455f000050440000bd
:102fa400534500004c5f00003944000041540000c8
:102fb400415f00004e4f00005041000052490000a4
:102fc400545900002920000066610000696c00006b
:102fd400656400002e0a00000045000072720000c3
:102fe4006f720000206900006e200000726500000e
:102ff40065730000652f0000696e0000636c0000bb
:1030040075640000652f00007069000063320000e1
:10301400345f000075610000727400002e680000c7
:10302400206c0000696e0000652000003331000050
:10303400393a00002041000053530000455200007b
:1030440054280000753800005f6e0000756d0000a4
:10305400537400006f700000626900007473000014
:10306400203c00003d2000003229000020660000c2
:10307400616900006c650000642e00000a00000015
:1030840055410000525400003120000070610000de
:1030940072690000747900002065000072720000fb
:1030a4006f7200000a0000005541000052540000f5
:1030b4003120000066720000616d0000696e00003e
:1030c4006720000065720000726f0000720a000041
:1030d400005500004152000054310000206f0000f0
:1030e4007665000072720000756e000020650000b5
:1030f400727200006f7200000a0000005541000067
:103104005254000032200000706100007269000017
:103114007479000020650000727200006f72000074
:103124000a00000055410000525400003220000003
:1031340066720000616d0000696e00006720000087
:1031440065720000726f0000720a000000550000f2
:103154004152000054320000206f000076650000e8
:1031640072720000756e000020650000727200002b
:103174006f7200000a00000045720000726f0000c8
:1031840072200000696e0000207200006565000076
:10319400736500002f6300006f6d00006d6f000009
:1031a4006e2f00007069000063320000345f00007d
:1031b4007365000072690000616c00002e630000fa
:1031c400206c0000696e00006520000037370000a5
:1031d4003a200000496e0000766100006c6900002e
:1031e40064200000554100005254000000300000eb
:1031f4007800000045720000726f00007220000029
:10320400696e0000207200006565000073650000af
:103214002f6300006f6d00006d6f00006e2f0000c3
:103224007069000063320000345f000073650000c1
:1032340072690000616c00002e630000206c0000c5
:10324400696e00006520000032390000323a000047
:10325400204900006e760000616c00006964000083
:103264002055000041520000540000004572000047
:10327400726f000072200000696e0000207200006e
:1032840065650000736500002f6300006f6d00002a
:103294006d6f00006e2f0000706900006332000043
:1032a400345f00007365000072690000616c000007
:1032b4002e630000206c0000696e00006520000091
:1032c40033330000313a0000204900006e760000dc
:1032d400616c000069640000205500004152000048
:1032e40054000000256400003a0000000a000000b9
:1032f40025340000640000005b5f00005f5d000097
:10330400004300006f6e00006772000061740000eb
:10331400756c000061740000696f00006e7300003a
:10332400215900006f7500002072000065610000e3
:103334006368000065640000202500002d3400004f
:10334400640000000a5900006f7500002077000037
:103354006f6e000020770000697400006820000090
:1033640061200000676f00006f640000207300009c
:10337400636f0000726500003a200000000a00003c
:10338400596f000075200000666500006c6c000039
:1033940020730000686f0000727400002e2000008b
:1033a400596f000075200000736300006f72000005
:1033b4006564000020000000252d00003464000036
:1033c4000000000045720000726f000072200000cf
:1033d400696e0000207200006565000073650000de
:1033e4002f6300006f6d00006d6f00006e2f0000f2
:1033f4007069000063320000345f0000636c0000f9
:103404006f6300006b66000072650000712e00009f
:10341400632000006c6900006e6500002037000026
:10342400373a000020410000535300004552000089
:1034340054280000753800005f7300006f750000a9
:1034440072630000652000003c2000003829000061
:1034540020660000616900006c650000642e0000b5
:043464000a0000005a
:020000040000fa
:1034680032300000343800002d73000074790000f9
:103478006c65000020670000616d00006520000099
:1034880075730000696e000067200000766900000f
:10349800206b00006579000073200000484a000096
:1034a8004b4c0000207400006f2000006d6f00007e
:1034b800766500002c2000004573000063200000a2
:1034c800746f00002065000078690000740a00002d
:0434d80000000000f0
:020000040000fa
:1034dc000000fa00220707000080fa000000060036
:1034ec000000fa00c0e6a900c0e2a9000080fa00c2
:1034fc00000006000000fa00f9ff0700001027008a
:10350c002100200020408800314088000028ef0076
:10351c000228ef00020007000080fa0000000600fd
:10352c000000fa0000408000114080006100400063
:10353c00e080480000408800114088000240800074
:10354c00134080002040800031408000800f5100eb
:10355c00818f590003003600040007000028ef009b
:10356c000228ef000080fa00000006000000fa00bc
:10357c0021168000000820000080600000f0a700e9
:10358c000000ea000000e9004f00de000040780077
:10359c000080fb00610060004700dd002216800007
:1035ac00f1f72f00810061000100700020168800e7
:1035bc000080fa00000006003600f800809fbe0074
:1035cc00829fbe00849fbe00869fbe003400f80020
:1035dc0000002000a00188000000fa00100020006c
:1035ec004040880020152900080007000080fa00e0
:1035fc003400f9004f03be004f02be004f01be0065
:10360c004f00be003600f900004006000200fa0030
:10361c00000f7800504080000000e00003003a00ea
:10362c009e007800514088000000fe000080fa00e7
:10363c00000006000600fa00100798002107980009
:10364c009e009000010f78001e009000ae009000cc
:10365c004008de000040780032e0b7001e00780021
:10366c001080ba008000eb00c001dd0002002000d9
:10367c001e0078001000ba008000eb000000710002
:10368c00818071000080fa00000006000e00fa0034
:10369c0000002000f10f2000e6ff07003007980023
:1036ac004107980020002000f10f2000e1ff0700e7
:1036bc00500798006107980010c0b300004f7800c5
:1036cc008016290010079800801629002007980002
:1036dc003e019000ce019000d0402000010020005f
:1036ec00800f5100818f590003003a000017290008
:1036fc0010079800020037000040eb00004f7800e4
:10370c005e009000ee0090004200230003002000b9
:10371c00820f5000838f58000d00320042042300aa
:10372c0003002000820f5000838f58000b003200e2
:10373c003200230003002000820f5000838f5800ba
:10374c0009003a00001829002007980009003700ea
:10375c00301829002007980006003700601829004f
:10376c0020079800030037000040eb00004f780062
:10377c000000000090182900f30007003e009000a4
:10378c00ce0090007901070060192900ee000700b7
:10379c001e009000ec00070090192900ea000700b9
:1037ac005e009000ee009000700107006019290087
:1037bc00e50007002e009000e3000700601a2900c6
:1037cc00e10007001e4078000004e00002003a000f
:1037dc00901a2900dc0007000080fa0000000600a7
:1037ec000200fa00103a80004c00de0067406000d6
:1037fc00004f78001e80fb00e30f500019003200d0
:10380c00e30f500007003c00e10f50000f003200a6
:10381c00e10f500010003c000000e00008003200f6
:10382c001c003700e50f500014003200e50f50006b
:10383c000f003500e70f5000130032001500370061
:10384c00a0462900c000070015003700704729006a
:10385c00bd00070012003700d0482900ba0007004d
:10386c000f003700704a2900b70007000c00370022
:10387c00a04c2900b400070009003700904d290026
:10388c00b100070006003700b04e2900ae0007005b
:10389c0003003700605029005cff070000000000a7
:1038ac000080fa00000006000200fa000040eb0065
:1038bc00004f7800003a8000680060000000e000d3
:1038cc0003003200f05129009f0007004067a90057
:1038dc00003a8000640060000000e0000300320049
:1038ec00f0532900980007004047a900e055290033
:1038fc0095000700003a8000610060000000e000c5
:10390c000a00320010c0b300004f7800d0562900d6
:10391c008d0007004007a9004027a9000a28ef00e6
:10392c000c28ef000828ef004d003700013a80000a
:10393c0000042000008060000000e000060032005f
:10394c00805729008000070010c0b300004f78009a
:10395c0040c7a90040e7a900003a80007000600051
:10396c000000e0000d00320010c0b300004f7800e2
:10397c009058290074000700604080000000e000af
:10398c0002003200604080006f000700c05929001f
:10399c006d0007004087a90040e7a900013a8000ac
:1039ac0000082000008060000000e00005003200ec
:1039bc0010c0b300004f7800e059290062000700e6
:1039cc0040e7a900003a8000620060000000e000bf
:1039dc000500320010c0b300004f7800f05a2900e7
:1039ec00590007004027a900013a80000000280078
:1039fc00008060000000e0000500320010c0b30041
:103a0c00004f7800b05b29004f00070041e7a90088
:103a1c00013a800000002400008060000000e000fb
:103a2c000500320010c0b300004f7800b05c2900d4
:103a3c004500070041c7a900013a80000020200082
:103a4c00008060000000e0000500320010c0b300f0
:103a5c00004f7800f05d29003b0007004127a900ca
:103a6c001e4078000004e00002003a00805f29004c
:103a7c0035000700504080000000e0000d003200cf
:103a8c008060290030000700504080002e000700a5
:103a9c00404080000000e0000200320080612900fc
:103aac002900070000632900270007000a28ef00ff
:103abc000828ef00f5fe070049ff07000080fa0018
:103acc00000006000000fa000080fa00000006006a
:103adc000200fa00000f78007dfe070085fe07004b
:103aec0000102e0001002000740107006eff07007b
:103afc001e007800140007000080fa000000060089
:103b0c000200fa00004f7800d04a8000e10f50000c
:103b1c0003003200e20f50000400320006003700b0
:103b2c001e4078002d020700050037001e4078006b
:103b3c007402070002003700e08b2900b3fe070077
:103b4c000080fa00000006000200fa00000f780066
:103b5c000a0037001e00780010407800e8ff0700cc
:103b6c001e00780010407800ea4f500002003a0026
:103b7c00d0c0b300e2ff07001e0fe8001e00780063
:103b8c00104078000004e000f2ff3a000080fa00d8
:103b9c00000006000a00fa00200798003107980080
:103bac00024f98003e0090000000e00002003a0036
:103bbc000000eb00240037000000eb001007980019
:103bcc000000eb0010079800170037000e4890001b
:103bdc000004e0000300320020010700004f7800d1
:103bec00020037000d010700004f78001e407800de
:103bfc00ea4f5000100032001e407800ed4f50008c
:103c0c000d0032009e4078002e0090000148780094
:103c1c002e0090000000e800200798001e00900085
:103c2c000000e80010079800be0090001e009000f5
:103c3c00808f5000e5ff3e002e0090008040eb008e
:103c4c00014878001e0090000080fa000000060079
:103c5c000400fa00000f7800110798000041eb00f7
:103c6c009e0090001e007800caff07000080fa003a
:103c7c00000006000400fa00000f780011079800fd
:103c8c0012c0b3009e0090001e007800c1ff070018
:103c9c000080fa00000006000400fa00204798009b
:103cac002e4090000080fb004400de00004f7800a6
:103cbc001e407800e94f50000400360071c3b30079
:103ccc001ec040008eff07000300370001c3b30085
:103cdc001ec040008aff07002e4090006f4f60000e
:103cec001e407800e94f50000400360071c3b30049
:103cfc001ec0400082ff07000300370001c3b30061
:103d0c001ec040007eff07000080fa000000060085
:103d1c000200fa00004f7800908f29008aff0700fc
:103d2c001e407800dcff07000080fa00000006004f
:103d3c000400fa0010079800908f290082ff0700fa
:103d4c001e0090004800de00004f78001e407800f6
:103d5c00d1ff07001e009000004f78001e40780035
:103d6c00cdff07000080fa00000006000600fa00f4
:103d7c001007980021079800908f290072ff070008
:103d8c001e009000ae0090004808de00004f780046
:103d9c001e407800c0ff07001e009000ae0090008f
:103dac004008de00004f78001e407800baff070084
:103dbc001e009000ae0090004809dd004800de00b7
:103dcc0000007100c808de00004f78001e4078002b
:103ddc00b1ff07001e009000004f78001e407800d5
:103dec00adff07000080fa00000006000a00fa0090
:103dfc00004f98000040eb00004f78008e48900078
:103e0c001147980000c3b3002047980000c3b300cb
:103e1c003047980000c3b300404798000040eb00c7
:103e2c00504798009e40900070ccb30080cf50005b
:103e3c00080036002e4090008040780080ccb30003
:103e4c0000c04000204798001e4090008043b00006
:103e5c00104798009e40900030c6b30080cf5000b1
:103e6c00070036002e4090004046b00020479800d6
:103e7c009e409000c0c9b30000c04000104798009d
:103e8c000040eb00004f78001e0037001e80fb0046
:103e9c00a1902000e14078001e40900080cf50009f
:103eac0017003e001e80fb004200de000040780040
:103ebc008080fb000101e8000080fb000000e800ae
:103ecc000000470020409000804078001e80fb00de
:103edc00239120006340780000c0400080407800af
:103eec0002004700214098001e80fb00a19020009a
:103efc00614078009e40900000c050001047980030
:103f0c001e4fe8001e407800e74f5000dfff3600e0
:103f1c000040eb00504798000e80e8000aff0700b5
:103f2c000080fa00000006000c00fa005007980010
:103f3c000040eb00004f7800de0090001107980065
:103f4c0000c3b3004047980000c3b300504798002b
:103f5c0000c3b3006047980000c3b30070479800db
:103f6c0000c3b300004f98000040eb00004f7800f6
:103f7c00210037001e80fb0080004000e08d2000f7
:103f8c0000804000900078001e009000808f500050
:103f9c0018003e001e80fb004200de00004078004e
:103fac000081fb000080fb000000470040409000b7
:103fbc00804078001e80fb0063006000639020004e
:103fcc006340780000c04000804078000200470049
:103fdc00414098001e80fb0080004000e08d2000d6
:103fec0000804000100078009e009000008050007f
:103ffc00100798001e4fe8001e407800f34f500049
:10400c00dcff36000040eb00104f980064004700c6
:10401c00cdfe07000080fa00000006000000fa0048
:10402c00d04a8000e10f500003003200e20f500034
:10403c000300320004003700fb00070005003700c6
:10404c004301070003003700c08f29006ffd0700f4
:10405c000040eb000080fa00000006000200fa00ad
:10406c00eeff0700004f78001e407800a4fe07000a
:10407c001e4078000080fa00000006000000fa00e4
:10408c00d04a8000e10f500003003200e20f5000d4
:10409c000300320004003700dd0007000500370084
:1040ac0025010700030037008093290057fd070006
:1040bc000040eb000080fa00000006000400fa004b
:1040cc00008fbe0020002000d04a88001e00be00d9
:1040dc00310107000080fa00000006000400fa001d
:1040ec00004f7800110798001e4078000004e00093
:1040fc0002003a001e00900044fd07000080fa0008
:10410c00000006000800fa0020079800310798000c
:10411c002e019000be01900000242400f10020002c
:10412c0076f107000081eb008081eb00021f40005c
:10413c000397480014c0b300f0ff2f0001002000cb
:10414c001e01be00800f5100818f59000100360006
:10415c000042eb004163290004407800dfff0700b8
:10416c002062a9001e007800401188000080fa002f
:10417c00000006000200fa00004f780010c0b300e7
:10418c009e407800e3cf5000010036000040eb0069
:10419c0011682900d1ff07009e40780063c06000c1
:1041ac000080fb00630060000000400002118000f2
:1041bc0091ff2f0081006100010070000011880048
:1041cc000080fa00000006000200fa00004f7800a0
:1041dc0010c0b3009e407800e2cf500001003600c2
:1041ec000040eb00816e2900bcff07001e40e90077
:1041fc00614060000080fb006100600002118000e3
:10420c00e1ff2f00810061000100700000118800a7
:10421c000080fa00000006000000fa000011800087
:10422c000080a1000090a1000011880021e2a800ec
:10423c002342a8000080fa00000006000800fa00e3
:10424c0020079800310798002e019000be019000c5
:10425c0000242400f100200028f107000081eb006d
:10426c008081eb00021f40000397480014c0b3008c
:10427c00f0ff2f00010020001e01be00800f510036
:10428c00818f5900010036000042eb00b173290008
:10429c000440780091ff07003062a9001e007800ee
:1042ac00c01188000080fa00000006000200fa002d
:1042bc00004f780010c0b3009e407800e3cf500050
:1042cc00010036000040eb008178290083ff0700d5
:1042dc009e40780063c060000080fb0063006000bb
:1042ec00000040008211800091ff2f0081006100ce
:1042fc0001007000801188000080fa0000000600a8
:10430c000200fa00004f780010c0b3009e40780005
:10431c00e2cf5000010036000040eb00f17e290096
:10432c006eff07001e40e900614060000080fb004a
:10433c006100600082118000e1ff2f0081006100ac
:10434c0001007000801188000080fa000000060057
:10435c000000fa00801180000080a1000090a100f4
:10436c008011880031e2a8003342a8000080fa00d6
:10437c00000006000200fa001011800068006000c6
:10438c000000e0000400320030118000004f780083
:10439c00208429009dfc070010118000640060003f
:1043ac000000e0000400320030118000004f780063
:1043bc006085290095fc07001011800062006000e8
:1043cc000000e000030032002222a900b086290080
:1043dc008efc07000080fa00000006000200fa00c4
:1043ec00004f7800010037004dfc070011118000d0
:1043fc0000202000008060000000e000faff3a007e
:10440c001e80fb00201188000080fa0000000600ce
:10441c000000fa001011800000407800614060003c
:10442c000080fa00000006000200fa0007003700c6
:10443c0047020700004f78001e4078000004e0009f
:10444c00020032001e407800070037001011800077
:10445c00610060000000e000f5ff3200c5ff0700be
:10446c0030118000004078000080fa000000060047
:10447c000400fa00008fbe001e00be0021ff0700e2
:10448c000040eb003bff070010c0b3004eff0700dd
:10449c0061ff07000080fa00000006000200fa002d
:1044ac0090118000680060000000e0000400320001
:1044bc00b0118000004f78000088290053fc0700e1
:1044cc0090118000640060000000e00004003200e5
:1044dc00b0118000004f7800408929004bfc070088
:1044ec0090118000620060000000e00003003200c8
:1044fc003222a900908a290044fc07000080fa00af
:10450c00000006000200fa00004f7800010037009e
:10451c0003fc070091118000002020000080600047
:10452c000000e000faff3a001e80fb00a01188009a
:10453c000080fa00000006000000fa0090118000d4
:10454c0000407800614060000080fa000000060026
:10455c000200fa0007003700fd010700004f780049
:10456c001e4078000004e000020032001e4078007b
:10457c000700370090118000610060000000e0002f
:10458c00f5ff3200c5ff0700b01180000040780035
:10459c000080fa00000006000400fa00008fbe0044
:1045ac001e00be0025ff07000040eb003fff070088
:1045bc0010c0b30052ff070065ff07000080fa002f
:1045cc000000060001458800618a2000820020005e
:1045dc002300200083b89f00e2b89f00a20098003f
:1045ec0083089800620020000002e9006822b800ed
:1045fc008002eb00818a200084b89f00e2b89f0003
:10460c00a500980085089800a18a200085b89f0015
:10461c00e5b89f00a200980084089800680042004a
:10462c00720020008001e9000402e800c18a200029
:10463c0082b89f00e4b89f00a300980083089800fc
:10464c00f044880000000600810040000001780062
:10465c000000eb004100e00001003a000000e8001f
:10466c000208e100fbff3c00000006008100400056
:10467c0080017800100020004110e100030034009c
:10468c000308e100fcff3c000000eb00000006000a
:10469c00889fbe008a9fbe00000478000000eb00db
:1046ac00668a20008103d00066817b00868a200008
:1046bc00e6817b00a68a200066827b00c68a2000e9
:1046cc00e6827b0003034400840544000b30e100c8
:1046dc000f0032001600e0000b003a008003eb00e4
:1046ec00060578006a8d78009a83730001054500f1
:1046fc000b50e100fbff3a00800deb000000a00026
:10470c000700e000f3ff3a0001034300efff37001e
:10471c00030344001600e000110032000b30e100ee
:10472c000f003200e68378001638e1000a003a00e8
:10473c00078b4300160040008b0478000005eb004b
:10474c00990378008a0c780007057800818454005e
:10475c000648e100faff3a0001034300edff370081
:10476c0083014100040241000520e100d5ff350022
:10477c004f05be004f04be00000006008100400043
:10478c000200e00006003a00822078000008e100f8
:10479c00fdff3c0013009800430098000000060049
:1047ac000382cf008302cf00f082120085016a00e1
:1047bc000002be00ef816100110009008201d800e7
:1047cc00a0aa2a000100de00660060004500e0009f
:1047dc0001003200fdff3c000100e000020032004d
:1047ec008100e900f9ff3700800a7800000006001c
:1047fc006200e100030032006800e10001003200b9
:10480c000000eb0000000600924580000200010051
:10481c0000f0a600f6ff3700800078000000ea00e8
:10482c000180e700fe230200000000000000ea0007
:10483c0000000600a34580000300010000000600f4
:10484c000000eb008000eb0002458000a3458000d7
:10485c000300010000000600889fbe008a9fbe0076
:10486c000004be00faff2f00820578000800be008d
:10487c000a00be000a24020000000000800570003f
:10488c000e0032000b00d00005003a000800be00fc
:10489c0016250200000000000000a10007003700f0
:1048ac00080078008b0078004e2302000000000006
:1048bc00000578000000e000ecff32008b0078006f
:1048cc004f05be004f04be00000006000001be00f4
:1048dc00248b20001400be008002eb000510e700c2
:1048ec00000178000518e70081017800028abe00fb
:1048fc0000000600889fbe008a9fbe008c1f7800b7
:10490c000006eb00090028000005be000a00be00ee
:10491c000c0178000200a10020240200000000001d
:10492c000a00be00090178003224020000000000d9
:10493c000004be000000e000170032000000a100df
:10494c000000460014003100000678000a00be008a
:10495c002a23020000000000000178008c0168008e
:10496c000a00be00c4230200000000000c00a700d7
:10497c00e6ff37000a00be00024580003c2302001f
:10498c00000000000c0670000000a70026240200a6
:10499c0000000000ddff37000c0078004f067800a7
:1049ac004f05be004f04be0000000600889fbe00ed
:1049bc000204be00e822020000000000e08b200090
:1049cc00f14480000200200023002000c4230200d8
:1049dc00000000000800be004f04be006c24020062
:1049ec000000000000000600dc24020000000000b3
:1049fc00e08b2000f14480008024020000000000c5
:104a0c00000006000101d00001003a002100200046
:104a1c000001eb000280e7006a80680000000600dd
:104a2c00889fbe000004be00805022008000eb0076
:104a3c006c240200000000000800fd0089007800d2
:104a4c0080240200000000000800fd008000eb0044
:104a5c006c24020000000000080078004f04be0027
:104a6c0000000600dc24020000000000e08b2000a7
:104a7c00f144800016250200000000000000060032
:104a8c000000fa00c0e2a8000080fa000000060056
:104a9c000000fa0069e0a900d2c2a8000080fa0068
:104aac00000006000000fa006a00a900d2e2a8008b
:104abc000080fa00000006000000fa006a60a900fd
:104acc00d3a2a8000080fa00000006000a00fa0039
:104adc00200798003107980042079800ce009000fc
:104aec00811f780040972900801f780021ef070074
:104afc00e48757002e0090000000e0002d003200eb
:104b0c000000eb00000f780025003700809729008b
:104b1c000dfc07000000eb00100798001c0037008c
:104b2c002e00900090007800410798004e009000f5
:104b3c0000f0a7000000ea000000ea004f00de00d1
:104b4c0000407800ae0090008180e80021079800ba
:104b5c000004e00007003200ce009000811f7800b6
:104b6c00a0972900801f780002ef0700e487570008
:104b7c0004003700e0972900801f7800fdee070045
:104b8c008f87e9001e0090000000e80010079800d5
:104b9c001e009000e30f5000e1ff36001e0fe800ee
:104bac003e0090004300de009e0f5000d7ff3e00f9
:104bbc0006003700ce009000811f78003098290045
:104bcc00801f7800ebee0700e487570080972900e0
:104bdc00ddfb07000080fa00000006000200fa006e
:104bec00000f78001e007800610060000040780023
:104bfc000004e00003003200409a2900d2fb0700b9
:104c0c0002003700109c2900cffb0700e0ff2f00ab
:104c1c001e006000801f7800e09d2900801f780036
:104c2c00d4ee0700e487570080972900c6fb0700e5
:104c3c000080fa00000006000000fa0094ff070054
:104c4c0098ff07008eff07009bff07000080fa000b
:104c5c00000006000000fa00a116800000042000ed
:104c6c000080600000f0a7000000ea000000e900ee
:104c7c004f00de00004078000080fa0000000600c3
:104c8c000000fa00a11680000008200000806000df
:104c9c0000f0a7000000ea000000e9004f00de0071
:104cac00004078000080fa00000006000000fa00c6
:104cbc0011168000000820000080600000f0a700a2
:104ccc000000ea000000e9004f00de000040780020
:104cdc000080fa00000006000000fa00a116800017
:104cec00000022000080600000f0a7000000ea0035
:104cfc000000e9004f00de00004078000080fa0060
:104d0c00000006000600fa001007980041479800c2
:104d1c000080eb00000f78001e00780000004000bf
:104d2c00000f78001e009000000001000080fb00c6
:104d3c001e0f7000faf907001e0078000000e0005a
:104d4c00f5ff3a004e4090000080fa00000006008b
:104d5c000000fa00f2f90700beff07000004e000b3
:104d6c000400320081c6b30000632200e5ff070097
:104d7c0016003700c2ff07000004e00004003200f8
:104d8c00a1c6b30060642200deff07000f003700ed
:104d9c00c6ff07000004e00004003200b1c6b300f7
:104dac00c0652200d7ff070008003700caff0700c4
:104dbc000004e00004003200c1c6b30020672200ea
:104dcc00d0ff0700010037000040eb000080fa0024
:044ddc0000000600cd
:020000040000fa
:104de000960800004800000000000000de080000f7
:104df0003c0000000200000050c3300075204e004f
:104e00001027880013b80b00d007e80003f4010056
:104e10002c01c8000064000032001e0000140000d5
:104e20000a00050000030000020001000005030065
:104e3000020132001e140a000503020001050300ee
:104e40000201050003020100000800000a00000042
:104e5000000000005a0900000200000002000000eb
:104e6000010000003c0900001a00000002000000e0
:104e7000686a6c00747a4c000000010000020000b7
:104e80000400080000100000000020002b2d23006b
:104e9000300000000e080000880000000200000042
:104ea0000100000000340800350834000834080010
:104eb000340834000824080000000000000000004e
:104ec00000000000000000000000000000000000e2
:104ed000000000000002080001015c00085d0800fd
:104ee0005c085c00085c08005c084c0008000000de
:104ef00000000000000000000000000000000000b2
:104f00000000000000000000000002000802020093
:104f10008408850008840800840884000884080048
:104f20007408000000000000000000000000000005
:104f30000000000000000000000000000000000071
:104f40000e083600085e08000000000000000000a7
:104f500000000000000000001a090000220000000c
:104f6000020000003031320033343500363738006b
:104f7000394142004344450046003000313233009d
:104f80003435360037383900616263006465660085
:104f9000000000005c0900000200000000000000aa
:104fa0005e09000002000000020000000400000092
:104fb0005609000004000000000000006009000025
:0c4fc000020000000000000000000000e3
:020000040000fa
:104fcc000400fa00004f7800110798001e4078008a
:104fdc000004e00002003a001e0090008bf907006c
:104fec000080fa00000006000400fa002047980038
:104ffc0010c0b300ae409000e7cf50000100360067
:10500c000040eb00419e2900edff0700ff3ffc0034
:10501c00113a8000010f78002e409000674060002c
:10502c000080fb00670060004800dd001e01780076
:10503c00f18f2f008100610001007000000f7800db
:10504c001e0078000000a000000f78000e00e800a1
:10505c00104078000081fb0080072000a10920008f
:10506c0033742000804978008149780082497800a7
:10507c000e007800104078000081fb0060042000d6
:10508c007105200023742000804978008149780044
:10509c00824978000000fc0000000000103a8000fb
:1050ac00610060000000e000fcff3a002e40900020
:1050bc00e14f5000040032002e409000e34f5000ae
:1050cc0007003a000100370000000000113a800090
:1050dc0000022000008060000000e000fbff3200b6
:1050ec000080fa00000006000000fa000080fa00c0
:1050fc00000006000000fa000040eb00baff0700b9
:10510c00203a80000080a1000090a10000a0a10026
:10511c00203a880030c0b300b3ff07000080fa00cb
:10512c00000006000000fa00203a80000080a10078
:10513c000090a10000a0a100203a880030c0b3006c
:10514c00a9ff07000080fa00000006000000fa002a
:10515c0030c0b300a4ff07000080fa000000060076
:10516c000000fa000040eb009fff0700203a80008f
:10517c000080a1000090a10000a0a100203a8800ae
:10518c0030c0b30098ff07000080fa000000060052
:10519c000000060014200200000000007f006000e8
:1051ac006100e10002003a00000028000000060047
:1051bc006800e10002003a00200020000000060018
:1051cc006a00e10002003a0080ff2f000000060098
:1051dc006b00e10002003a00800020000000060095
:1051ec006c00e10002003a00e0ff2f000000060016
:1051fc007b00e100e7ff3a000000eb000000060036
:10520c0040a329006e1d02000000000022260200af
:10521c00000000002000200001102000028d220060
:10522c00c3562200fa24020000000000f4250200fc
:10523c00000000001029040000000000000006001f
:020000040000fa
:020000040002f8
:04aff8007d78000060
:020000040000fa
:020000040002f8
:04affc00393e0000da
:00000001FF
